:020000040800F2
:1000000000000120191500084914000851140008C7
:100010005914000861140008691400080000000069
:100020000000000000000000000000007114000843
:100030007D140008000000008914000895140008D1
:100040006915000869150008691500086915000898
:100050006915000869150008691500086915000888
:100060006915000869150008691500086915000878
:100070006915000869150008691500086915000868
:100080006915000869150008691500086915000858
:1000900000000000691500086915000869150008CE
:1000A0006915000869150008691500086915000838
:1000B0006915000869150008691500086915000828
:1000C0006915000869150008691500086915000818
:1000D0006915000869150008691500086915000808
:1000E00069150008691500086915000869150008F8
:1000F00069150008000000000000000069150008F4
:1001000069150008691500086915000869150008D7
:1001100069150008691500086915000869150008C7
:1001200069150008691500086915000869150008B7
:080130006915000869150008BB
:1001400010B5054C237833B9044B13B10448AFF311
:1001500000800123237010BD5C000020000000001F
:10016000444B000808B5034B1BB103490348AFF3E8
:10017000008008BD0000000060000020444B000823
:10018000034613F8012B002AFBD1181A01387047D7
:1001900001F0FF01102A2BDB10F0070F08D010F838
:1001A000013B013A8B422DD010F0070F42B3F6D13C
:1001B000F0B441EA012141EA014122F007047FF055
:1001C00000070023F0E80256083C85EA010586EAAC
:1001D000010685FA47F5A3FA87F586FA47F6A5FAE8
:1001E00087F68EB9EED1F0BC01F0FF0102F00702F4
:1001F00032B110F8013B013A83EA010313B1F8D19F
:100200000020704701387047002D06BF354603387F
:10021000073815F0010F07D1013015F4807F02BFB8
:10022000013015F4C03F0130F0BC0138704700BF09
:1002300081F0004102E000BF83F0004330B54FEA97
:1002400041044FEA430594EA050F08BF90EA020F04
:100250001FBF54EA000C55EA020C7FEA645C7FEA97
:10026000655C00F0E2804FEA5454D4EB5555B8BFBA
:100270006D420CDD2C4480EA020281EA030382EA2B
:10028000000083EA010180EA020281EA0303362DBD
:1002900088BF30BD11F0004F4FEA01314FF4801C90
:1002A0004CEA113102D0404261EB410113F0004FA2
:1002B0004FEA03334CEA133302D0524263EB430359
:1002C00094EA050F00F0A780A4F10104D5F1200EF7
:1002D0000DDB02FA0EFC22FA05F2801841F1000152
:1002E00003FA0EF2801843FA05F359410EE0A5F126
:1002F00020050EF1200E012A03FA0EFC28BF4CF057
:10030000020C43FA05F3C01851EBE37101F000450C
:1003100007D54FF0000EDCF1000C7EEB00006EEB19
:100320000101B1F5801F1BD3B1F5001F0CD34908A3
:100330005FEA30004FEA3C0C04F101044FEA4452FA
:1003400012F5800F80F09A80BCF1004F08BF5FEA81
:10035000500C50F1000041EB045141EA050130BD61
:100360005FEA4C0C404141EB0101013C28BFB1F573
:10037000801FE9D291F0000F04BF01460020B1FABE
:1003800081F308BF2033A3F10B03B3F120020CDA91
:100390000C3208DD02F1140CC2F10C0201FA0CF06F
:1003A00021FA02F10CE002F11402D8BFC2F1200CD4
:1003B00001FA02F120FA0CFCDCBF41EA0C0190408A
:1003C000E41AA2BF01EB0451294330BD6FEA0404D3
:1003D0001F3C1CDA0C340EDC04F11404C4F12002BE
:1003E00020FA04F001FA02F340EA030021FA04F3D0
:1003F00045EA030130BDC4F10C04C4F1200220FA27
:1004000002F001FA04F340EA0300294630BD21FA64
:1004100004F0294630BD94F0000F83F4801306BF2A
:1004200081F480110134013D4EE77FEA645C18BF1E
:100430007FEA655C29D094EA050F08BF90EA020FB5
:1004400005D054EA000C04BF1946104630BD91EAAD
:10045000030F1EBF0021002030BD5FEA545C05D1B0
:100460004000494128BF41F0004130BD14F58004EF
:100470003CBF01F5801130BD01F0004545F0FE4163
:1004800041F470014FF0000030BD7FEA645C1ABF98
:10049000194610467FEA655C1CBF0B46024650EACF
:1004A000013406BF52EA033591EA030F41F40021FB
:1004B00030BD00BF90F0000F04BF0021704730B581
:1004C0004FF4806404F132044FF000054FF0000156
:1004D00050E700BF90F0000F04BF0021704730B517
:1004E0004FF4806404F1320410F0004548BF4042EC
:1004F0004FF000013EE700BF42004FEAE2014FEA41
:1005000031014FEA02701FBF12F07F4393F07F4F1B
:1005100081F06051704732F07F4208BF704793F01E
:100520007F4F04BF41F40021704730B54FF4607431
:1005300001F0004521F000411CE700BF50EA010234
:1005400008BF704730B54FF000050AE050EA0102DD
:1005500008BF704730B511F0004502D5404261EB4D
:1005600041014FF4806404F132045FEA915C3FF48E
:10057000D8AE4FF003025FEADC0C18BF03325FEA2B
:10058000DC0C18BF033202EBDC02C2F1200300FADC
:1005900003FC20FA02F001FA03FE40EA0E0021FA01
:1005A00002F11444BDE600BF70B54FF0FF0C4CF4EF
:1005B000E06C1CEA11541DBF1CEA135594EA0C0FA1
:1005C00095EA0C0F00F0DEF82C4481EA030621EADC
:1005D0004C5123EA4C5350EA013518BF52EA033517
:1005E00041F4801143F4801338D0A0FB02CE4FF0C9
:1005F0000005E1FB02E506F00042E0FB03E54FF0F9
:100600000006E1FB03569CF0000F18BF4EF0010EF0
:10061000A4F1FF04B6F5007F64F5407404D25FEAEC
:100620004E0E6D4146EB060642EAC62141EA55519F
:100630004FEAC52040EA5E504FEACE2EB4F1FD0CE1
:1006400088BFBCF5E06F1ED8BEF1004F08BF5FEA5F
:10065000500E50F1000041EB045170BD06F0004611
:1006600046EA010140EA020081EA0301B4EB5C04BE
:10067000C2BFD4EB0C0541EA045170BD41F48011B6
:100680004FF0000E013C00F3AB8014F1360FDEBFDB
:10069000002001F0004170BDC4F10004203C35DAB7
:1006A0000C341BDC04F11404C4F1200500FA05F33A
:1006B00020FA04F001FA05F240EA020001F00042DB
:1006C00021F0004110EBD37021FA04F642EB060151
:1006D0005EEA430E08BF20EAD37070BDC4F10C047B
:1006E000C4F1200500FA04F320FA05F001FA04F23F
:1006F00040EA020001F0004110EBD37041F100012B
:100700005EEA430E08BF20EAD37070BDC4F1200535
:1007100000FA05F24EEA020E20FA04F301FA05F29D
:1007200043EA020321FA04F001F0004121FA04F245
:1007300020EA020000EBD3705EEA430E08BF20EA15
:10074000D37070BD94F0000F0FD101F0004640004F
:1007500041EB010111F4801F08BF013CF7D041EAD1
:10076000060195F0000F18BF704703F000465200D5
:1007700043EB030313F4801F08BF013DF7D043EAA6
:100780000603704794EA0C0F0CEA135518BF95EA5C
:100790000C0F0CD050EA410618BF52EA4306D1D1E3
:1007A00081EA030101F000414FF0000070BD50EA02
:1007B000410606BF1046194652EA430619D094EA8C
:1007C0000C0F02D150EA013613D195EA0C0F05D176
:1007D00052EA03361CBF104619460AD181EA0301CA
:1007E00001F0004141F0FE4141F470014FF0000082
:1007F00070BD41F0FE4141F4780170BD70B54FF01D
:10080000FF0C4CF4E06C1CEA11541DBF1CEA13559C
:1008100094EA0C0F95EA0C0F00F0A7F8A4EB05047E
:1008200081EA030E52EA03354FEA013100F0888075
:100830004FEA03334FF0805545EA131343EA12633E
:100840004FEA022245EA111545EA10654FEA0026F3
:100850000EF000419D4208BF964244F1FD0404F5AC
:10086000407402D25B084FEA3202B61A65EB030508
:100870005B084FEA32024FF480104FF4002CB6EBC5
:10088000020E75EB030E22BFB61A754640EA0C0045
:100890005B084FEA3202B6EB020E75EB030E22BF85
:1008A000B61A754640EA5C005B084FEA3202B6EBC6
:1008B000020E75EB030E22BFB61A754640EA9C0085
:1008C0005B084FEA3202B6EB020E75EB030E22BF55
:1008D000B61A754640EADC0055EA060E18D04FEA13
:1008E000051545EA16754FEA06164FEAC30343EAB3
:1008F00052734FEAC2025FEA1C1CC0D111F4801F80
:100900000BD141EA00014FF000004FF0004CB6E778
:1009100011F4801F04BF01430020B4F1FD0C88BF17
:10092000BCF5E06F3FF6AFAEB5EB030C04BFB6EB22
:10093000020C5FEA500C50F1000041EB045170BD15
:100940000EF0004E4EEA113114EB5C04C2BFD4EB42
:100950000C0541EA045170BD41F480114FF0000EC6
:10096000013C90E645EA060E8DE60CEA135594EA42
:100970000C0F08BF95EA0C0F3FF43BAF94EA0C0F45
:100980000AD150EA01347FF434AF95EA0C0F7FF4BA
:1009900025AF104619462CE795EA0C0F06D152EA0E
:1009A00003353FF4FDAE1046194622E750EA4106F2
:1009B00018BF52EA43067FF4C5AE50EA41047FF403
:1009C0000DAF52EA43057FF4EBAE12E74A0011D2B5
:1009D00012F5001211D20DD56FF47873B3EB625299
:1009E0000ED44FEAC12343F0004343EA505323FAA5
:1009F00002F070474FF00000704750EA013002D11A
:100A00004FF0FF3070474FF00000704780B582B064
:100A100000AF786039607B683A681A607B6804339D
:100A200080220021184603F0B9FB7B6884338022C2
:100A30000021184603F0B2FB00BF0837BD4680BD59
:100A400080B584B000AF786039603868FFF798FBF4
:100A50000346FB81FB897F2B01D9012326E07B68BC
:100A6000043380220021184603F098FB7B6804338E
:100A7000FA893968184603F0A6FB002208210D48C0
:100A800001F07AF8142000F0E7FD7B6818687B68B5
:100A9000191DFA894FF4FA6303F00AFA03467B73CF
:100AA00001220821034801F067F87B7B18461037C4
:100AB000BD4680BD0004004880B586B000AF7860B8
:100AC0002A21786803F072FBF8600023FB757B68CD
:100AD00001333B6107E03B691A78FB7D5340FB75AE
:100AE0003B6901333B613A69FB689A42F3D3FB6887
:100AF0000133FA7D0349184603F02EFB00BF183777
:100B0000BD4680BD5C4B000880B58CB000AF7860FE
:100B1000104A07F1080307CA03C31A8007F112033A
:100B20001E220021184603F039FB07F1080318467E
:100B3000FFF7C2FF07F1080319467868FFF780FF47
:100B40000346002B01D1012300E000231846303773
:100B5000BD4680BD644B000880B58CB000AF7860A6
:100B60000B46FB701346BB70FA78BB7807F10800A0
:100B70000B4903F0F1FA07F108031846FFF79CFF51
:100B800007F1080319467868FFF75AFF0346002B60
:100B900001D1012300E0002318463037BD4680BD57
:100BA000DC4B000880B58CB000AF78600B46FB7062
:100BB000FA7807F108002D230B4903F0CDFA07F16D
:100BC00008031846FFF778FF07F10803194678680D
:100BD000FFF736FF0346002B01D1012300E000237D
:100BE00018463037BD4680BD3C4C000880B586B005
:100BF00000AF354B10221A60334802F0CDFF034698
:100C0000002B01D000235AE000237B7407F111026E
:100C1000012380212C4803F023F80346002B01D048
:100C200000234CE001233B7407F1100201238A21C9
:100C3000254803F015F80346002B01D000233EE0C1
:100C4000224B7B61786900F047F80346FB740E2065
:100C500000F088F80346BB74BB7C83F00103DBB271
:100C6000002B05D1FB7C83F00103DBB2002B01D00C
:100C7000002324E0092000F099F8034683F00103E3
:100C8000DBB2002B01D0002319E0114A3B1D92E892
:100C9000030018600433198002330A0C1A7007F13C
:100CA0000B0300221A803A1D07238C21064802F00C
:100CB000D7FF0346002B01D0002300E00123184694
:100CC0001837BD4680BD00BF78000020CD4C66447B
:100CD000984C00080000000080B584B000AF786038
:100CE0007868FFF709FC1AA3D3E90023FFF75CFC3F
:100CF00002460B461046194617A3D3E90023FFF717
:100D00007DFD02460B4610461946FFF75FFE03467F
:100D1000FB60FB681B0CDBB23B72FB681B0ADBB29F
:100D20007B72FB68DBB2BB7207F1080203238621EA
:100D30000B4802F095FF0346002B0CBF0123002354
:100D4000DBB218461037BD4680BD00BFAFF3008050
:100D50000000000080842E410000000080844E408E
:100D60007800002080B584B000AF0346FB710423F7
:100D7000FB73FB79162B01D91623FB71FB793B73AF
:100D8000FB7B7B7307F10C0202238E21064802F0E5
:100D900067FF0346002B0CBF01230023DBB218467C
:100DA0001037BD4680BD00BF7800002080B584B0FC
:100DB00000AF0346FB71FB79062B02D9FB790C2BA4
:100DC00001D9002314E0FB793B7304237B730023D8
:100DD000BB730023FB7307F10C0204238B2106482D
:100DE00002F03EFF0346002B0CBF01230023DBB2C1
:100DF00018461037BD4680BD7800002090B587B0FA
:100E000000AFF8607A601A460B46FB7213463B81CE
:100E1000FB68002B02D14FF0FF3309E0FB685C68F0
:100E2000FB68D8683B89F97A7A68A04778617B6962
:100E300018461C37BD4690BD80B584B000AF7860C1
:100E4000396001233A680F217868FFF7D7FFF8600F
:100E5000FB6818461037BD4680BD80B485B000AF32
:100E600078604FF0B043DA6C4FF0B0417B681343C9
:100E7000CB644FF0B043DA6C7B681340FB60FB68D7
:100E800000BF1437BD4680BC7047000080B588B0F5
:100E900000AF00F06BFB00F003F900F053F9FFF72F
:100EA000A5FE1F48FFF718FF1120FFF75BFF092081
:100EB000FFF77CFF1B4800F003FA1A491A48FFF7B6
:100EC000A5FD1948FFF720FE174800F033F8174832
:100ED00000F04AFA3B460FCB00F04EF8002003F03A
:100EE00085F9C7E906010023FB7500233B61104B20
:100EF0001B88002B0CBF01230023DBB21A460C4BCE
:100F00001A800B4B1B88DBB21A4601214FF0904030
:100F100000F032FE4FF4FA7000F09EFB00BFE6E7EF
:100F200000A061448400002018010020300200204D
:100F30008402002080B584B000AF78600121786819
:100F4000FFF730FE0023FB6009E0FB68DBB2002204
:100F500019467868FFF700FEFB680133FB60FB6809
:100F6000082BF2DD012204217868FFF7F5FD00BFB0
:100F70001037BD4680BD000090B589B000AF3C463B
:100F800084E80F000A4B3B600A4B7B600A4BBB6056
:100F90000A4BFB600A2000F078F807F117023B4685
:100FA00011461846FFF748FF00BF2437BD4690BDE5
:100FB000C10F0008211000088B100008300200202B
:100FC00080B586B002AFF8607A601A460B46FB72B5
:100FD00013463B8100224FF480614FF0904000F0B7
:100FE000CBFD07F10B024FF47A7300930123D52157
:100FF000F86800F0D9FD3B894FF47A7200927A6864
:10100000D521F86800F0D0FD01224FF480614FF047
:10101000904000F0B1FD002318461037BD4680BD5A
:1010200080B586B002AFF8607A601A460B46FB7254
:1010300013463B81FB7A63F07F03DBB2FB72002235
:101040004FF480614FF0904000F096FD07F10B02E5
:101050004FF47A7300930123D521F86800F0A4FDC2
:101060003B894FF47A7200927A68D521F86800F0D3
:10107000B3FE01224FF480614FF0904000F07CFD00
:10108000002318461037BD4680BD80B582B000AF42
:101090007860786800F0E0FA00BF0837BD4680BD90
:1010A00080B59AB000AF07F120034822002118460E
:1010B00003F074F807F1080300221A605A609A607E
:1010C000DA601A615A611E4B1B6823F4C0631C4A24
:1010D00043F4806313601A4B1B6803F4C0637B60A6
:1010E0007B6820233B6201233B6400237B646023F5
:1010F000BB640023FB6407F12003184601F098FC51
:101100000346002B01D000F042F84F23BB600023C0
:10111000FB6000233B6100237B610023BB61002354
:10112000FB6107F108030021184602F003F80346AB
:10113000002B01D000F02BF800BF6837BD4680BD02
:101140000004005880B586B000AF3B1D00221A6035
:101150005A609A60DA601A610120FFF77EFE002271
:1011600001214FF0904000F007FD01237B60012337
:10117000BB600023FB6000233B613B1D19464FF021
:10118000904000F099FB00BF1837BD4680BD80B489
:1011900000AF72B600BF00BFFDE780B400AF4FF0F4
:1011A000B0431B684FF0B04243F40013136000BF1C
:1011B000BD4680BC704780B400AF4FF0B0431B68A1
:1011C0004FF0B04243F48033136000BFBD4680BC93
:1011D000704780B400AF4FF0B0431B6803F4003396
:1011E000B3F5003F01D1012300E000231846BD46BE
:1011F00080BC704780B485B000AF78604FF0B043DA
:10120000DA6C4FF0B0417B681343CB644FF0B043CE
:10121000DA6C7B681340FB60FB6800BF1437BD4687
:1012200080BC704780B485B000AF78604FF0B043A9
:101230009A6D4FF0B0417B6813438B654FF0B0431C
:101240009A6D7B681340FB60FB6800BF1437BD4696
:1012500080BC704780B485B000AF78604FF0B04379
:101260001A6E4FF0B0417B6813430B664FF0B043EA
:101270001A6E7B681340FB60FB6800BF1437BD46E5
:1012800080BC704780B485B000AF78604FF0B04349
:101290005A6E4FF0B0417B6813434B664FF0B0433A
:1012A0005A6E7B681340FB60FB6800BF1437BD4675
:1012B00080BC704780B400AF00BFBD4680BC7047A3
:1012C00080B596B000AF786007F1440300221A6041
:1012D0005A609A60DA601A6107F10C033822002123
:1012E000184602F05BFF7B681B681D4A934233D1AE
:1012F0000123FB604FF440333B6107F10C031846B8
:1013000002F096FA0346002B01D0FFF740FF4FF49E
:101310008040FFF79FFF0220FFF76CFFC0237B6434
:101320000223BB640123FB6400233B6507237B6529
:1013300007F1440319460B4800F0BEFA08237B640A
:101340000123BB640023FB6400233B6507F14403D6
:101350001946044800F0B0FA00BF5837BD4680BDBA
:10136000003801400004004880B596B000AF7860B6
:1013700007F1440300221A605A609A60DA601A6129
:1013800007F10C0338220021184602F007FF7B68A2
:101390001B681F4A934236D14FF48073FB601D4B8C
:1013A000BB6207F10C03184602F042FA0346002B19
:1013B00001D0FFF7ECFE0220FFF71CFF4FF488433B
:1013C0007B641223BB640023FB6400233B6504237E
:1013D0007B6507F1440319460F4800F06DFA4FF49E
:1013E0000000FFF71FFF00220021302000F02FFA3D
:1013F000302000F046FA00220021312000F027FAC8
:10140000312000F03EFA00BF5837BD4680BD00BF16
:10141000005C0040002030000004004880B582B02D
:1014200000AF78600120FFF72DFFFFF7B6FEFFF752
:10143000C2FE00BFFFF7CDFE0346002BFAD000BF6F
:1014400000BF0837BD4680BD80B400AF00BFFDE7D8
:1014500080B400AF00BFFDE780B400AF00BFFDE780
:1014600080B400AF00BFFDE780B400AF00BFFDE770
:1014700080B400AF00BFBD4680BC704780B400AFF1
:1014800000BFBD4680BC704780B400AF00BFBD4602
:1014900080BC704780B500AF00F0C2F800BF80BDCF
:1014A00080B586B000AF7860144A154BD31A7B61C3
:1014B0007B693B61134B1B68002B02D1114B124A15
:1014C0001A60104B1A687B6813443A699A4207D233
:1014D00002F0BAFE03460C221A604FF0FF3309E017
:1014E000084B1B68FB60074B1A687B681344054A6E
:1014F0001360FB6818461837BD4680BD0000012008
:101500000004000088020020D803002080B400AF4F
:1015100000BFBD4680BC70470D488546FFF7F6FF0B
:101520000C480D490D4A002302E0D458C45004333E
:10153000C4188C42F9D30A4A0A4C002301E0136014
:101540000432A242FBD302F085FEFFF79FFCFEE7C8
:1015500000000120000000205C000020844D0008F5
:101560005C000020D8030020FEE7000080B582B0B8
:1015700000AF0023FB71032000F05EF901F09EFF35
:101580000346094A13600F2000F010F80346002BB1
:1015900002D00123FB7101E0FFF78CFEFB791846B6
:1015A0000837BD4680BD00BF0000002080B584B074
:1015B00000AF78600023FB73174B1B78002B24D0FF
:1015C00001F07CFF0246144B1B7819464FF47A73E6
:1015D000B3FBF1F3B2FBF3F3184600F060F90346F6
:1015E000002B0FD17B680F2B09D8002279684FF0B0
:1015F000FF3000F02CF9094A7B68136007E00123F3
:10160000FB7304E00123FB7301E00123FB73FB7B0D
:1016100018461037BD4680BD080000200400002099
:1016200080B400AF054B1B781A46054B1B6813446A
:10163000034A136000BFBD4680BC7047080000200D
:101640008C02002080B400AF024B1B681846BD46D8
:1016500080BC70478C02002080B584B000AF7860F9
:10166000FFF7F0FFB8607B68FB60FB68B3F1FF3FFA
:1016700005D00A4B1B781A46FB681344FB6000BF79
:10168000FFF7E0FF0246BB68D31AFA689A42F7D820
:1016900000BF00BF1037BD4680BD00BF080000205E
:1016A00080B485B000AF78607B6803F00703FB600F
:1016B0000C4BDB68BB60BA684FF6FF031340BB609E
:1016C000FB681A02BB68134343F0BF6343F4003363
:1016D000BB60044ABB68D36000BF1437BD4680BC02
:1016E000704700BF00ED00E080B400AF044BDB6842
:1016F0001B0A03F007031846BD4680BC704700BFB5
:1017000000ED00E080B483B000AF0346FB7197F9B1
:101710000730002B0BDBFB7903F01F02064997F91A
:1017200007305B09012000FA02F241F8232000BFD4
:101730000C37BD4680BC704700E100E080B483B048
:1017400000AF03463960FB7197F90730002B0ADBC5
:101750003B68DAB20C4997F907301201D2B20B4458
:1017600083F800230AE03B68DAB20849FB7903F00A
:101770000F03043B1201D2B20B441A7600BF0C37A0
:10178000BD4680BC704700BF00E100E000ED00E016
:1017900080B489B000AFF860B9607A60FB6803F08C
:1017A0000703FB61FB69C3F10703042B28BF042374
:1017B000BB61FB690433062B02D9FB69033B00E0E4
:1017C00000237B614FF0FF32BB6902FA03F3DA4377
:1017D000BB681A407B699A404FF0FF317B6901FA80
:1017E00003F3D9437B680B40134318462437BD46A7
:1017F00080BC704780B582B000AF78607B68013BE9
:10180000B3F1807F01D301230FE00A4A7B68013BDB
:1018100053600F214FF0FF30FFF790FF054B002280
:101820009A60044B07221A60002318460837BD4609
:1018300080BD00BF10E000E080B582B000AF7860EE
:101840007868FFF72DFF00BF0837BD4680BD80B523
:1018500086B000AF0346B9607A60FB73FFF744FFC0
:1018600078617A68B9687869FFF792FF024697F95C
:101870000F3011461846FFF761FF00BF1837BD460D
:1018800080BD80B582B000AF0346FB7197F9073089
:101890001846FFF737FF00BF0837BD4680BD80B54B
:1018A00082B000AF78607868FFF7A4FF034618465F
:1018B0000837BD4680BD000080B487B000AF7860B7
:1018C000396000237B6140E13B681A6801217B6934
:1018D00001FA03F31340FB60FB68002B00F0328138
:1018E0003B685B6803F00303012B05D03B685B6832
:1018F00003F00303022B30D17B689B683B617B695B
:101900005B00032202FA03F3DB433A6913403B61B5
:101910003B68DA687B695B0002FA03F33A691343B8
:101920003B617B683A699A607B685B683B61012236
:101930007B6902FA03F3DB433A6913403B613B687E
:101940005B681B0903F001027B6902FA03F33A6941
:1019500013433B617B683A695A603B685B6803F0FC
:101960000303032B17D07B68DB683B617B695B005B
:10197000032202FA03F3DB433A6913403B613B68FD
:101980009A687B695B0002FA03F33A6913433B618F
:101990007B683A69DA603B685B6803F00303022BFB
:1019A00023D17B69DA087B68083253F822303B6127
:1019B0007B6903F007039B000F2202FA03F3DB436A
:1019C0003A6913403B613B681A697B6903F007037E
:1019D0009B0002FA03F33A6913433B617B69DA081F
:1019E0007B680832396943F822107B681B683B61C9
:1019F0007B695B00032202FA03F3DB433A6913407D
:101A00003B613B685B6803F003027B695B0002FAA1
:101A100003F33A6913433B617B683A691A603B6898
:101A20005B6803F44033002B00F08C804E4A7B69E6
:101A30009B08023352F823303B617B6903F00303B8
:101A40009B00072202FA03F3DB433A6913403B6130
:101A50007B68B3F1904F0DD07B68444A934207D026
:101A60007B68434A934201D1022304E0072302E04A
:101A7000012300E000237A6902F003029200934000
:101A80003A6913433B6138497B699B0802333A69E1
:101A900041F82320374B1B683B61FB68DB433A6905
:101AA00013403B613B685B6803F48013002B03D059
:101AB0003A69FB6813433B612E4A3B6913602D4B27
:101AC0005B683B61FB68DB433A6913403B613B6801
:101AD0005B6803F40013002B03D03A69FB681343DF
:101AE0003B61244A3B695360224BD3F880303B6111
:101AF000FB68DB433A6913403B613B685B6803F476
:101B00008033002B03D03A69FB6813433B61194AC9
:101B10003B69C2F88030174BD3F884303B61FB68D7
:101B2000DB433A6913403B613B685B6803F4003375
:101B3000002B03D03A69FB6813433B610D4A3B69B4
:101B4000C2F884307B6901337B613B681A687B692A
:101B500022FA03F3002B7FF4B7AE00BF00BF1C379F
:101B6000BD4680BC704700BF000001400004004833
:101B7000000800480008005880B483B000AF7860C7
:101B80000B467B8013467B707B78002B03D07A88D2
:101B90007B689A6102E07A887B689A6200BF0C37A2
:101BA000BD4680BC7047000080B588B002AFF860C9
:101BB0007A601A460B467B8113463B81FB6893F89B
:101BC0004130DBB2202B40F0FD80FB6893F84030C1
:101BD000012B01D10223F6E0FB68012283F84020AB
:101BE000FFF730FD38613B690093192301224FF460
:101BF0000041F86800F009FA0346002B01D00123E8
:101C0000E1E0FB68212283F84120FB68102283F881
:101C10004220FB6800225A64FB687A685A62FB68BB
:101C20003A895A85FB6800225A63FB685B8D9BB238
:101C3000FF2B06D9FB68FF221A854FF080737B616A
:101C400007E0FB685B8D9AB2FB681A854FF0007362
:101C50007B61FB681B8D002B24D0FB685B6A1A78C4
:101C6000FB681B689A62FB685B6A5A1CFB685A62D5
:101C7000FB685B8D9BB2013B9AB2FB685A85FB689F
:101C80001B8D013B9AB2FB681A85FB681B8DDBB28A
:101C90000133DAB279894E4B00937B69F86800F022
:101CA00003FC66E0FB681B8DDAB27989484B009330
:101CB0007B69F86800F0F8FB5BE03A69396AF8681C
:101CC00000F0FCF90346002B01D001237BE0FB6808
:101CD0005B6A1A78FB681B689A62FB685B6A5A1C2D
:101CE000FB685A62FB685B8D9BB2013B9AB2FB6852
:101CF0005A85FB681B8D013B9AB2FB681A85FB680D
:101D00005B8D9BB2002B34D0FB681B8D002B30D138
:101D10003B6900933B6A00228021F86800F075F966
:101D20000346002B01D001234DE0FB685B8D9BB285
:101D3000FF2B0ED9FB68FF221A85FB681B8DDAB2D8
:101D40007989002300934FF08073F86800F0ACFBB2
:101D50000FE0FB685B8D9AB2FB681A85FB681B8DF0
:101D6000DAB27989002300934FF00073F86800F02D
:101D70009BFBFB685B8D9BB2002B9ED13A69396A55
:101D8000F86800F0E2F90346002B01D001231AE0C5
:101D9000FB681B682022DA61FB681B685968FB68D6
:101DA0001A680C4B0B405360FB68202283F84120DB
:101DB000FB68002283F84220FB68002283F8402061
:101DC000002300E0022318461837BD4680BD00BF3F
:101DD0000020008000E800FE80B588B002AFF86007
:101DE0007A601A460B467B8113463B81FB6893F869
:101DF0004130DBB2202B40F0DB80FB6893F84030B1
:101E0000012B01D10223D4E0FB68012283F840209A
:101E1000FFF718FC78617B690093192301224FF4C6
:101E20000041F86800F0F1F80346002B01D00123CF
:101E3000BFE0FB68222283F84120FB68102283F870
:101E40004220FB6800225A64FB687A685A62FB6889
:101E50003A895A85FB6800225A63FB685B8D9BB206
:101E6000FF2B0ED9FB68FF221A85FB681B8DDAB2A7
:101E70007989524B00934FF08073F86800F014FB9F
:101E80006DE0FB685B8D9AB2FB681A85FB681B8D61
:101E9000DAB27989494B00934FF00073F86800F08B
:101EA00003FB5CE07A69396AF86800F091F903464F
:101EB000002B01D001237CE0FB681B685A6AFB6899
:101EC0005B6AD2B21A70FB685B6A5A1CFB685A6282
:101ED000FB681B8D013B9AB2FB681A85FB685B8D22
:101EE0009BB2013B9AB2FB685A85FB685B8D9BB243
:101EF000002B34D0FB681B8D002B30D17B69009305
:101F00003B6A00228021F86800F07FF80346002B2E
:101F100001D001234DE0FB685B8D9BB2FF2B0ED9F6
:101F2000FB68FF221A85FB681B8DDAB279890023D2
:101F300000934FF08073F86800F0B6FA0FE0FB688A
:101F40005B8D9AB2FB681A85FB681B8DDAB27989C2
:101F5000002300934FF00073F86800F0A5FAFB68C7
:101F60005B8D9BB2002B9DD17A69396AF86800F0CD
:101F7000ECF80346002B01D001231AE0FB681B6834
:101F80002022DA61FB681B685968FB681A680C4BF1
:101F90000B405360FB68202283F84120FB6800223D
:101FA00083F84220FB68002283F84020002300E0F1
:101FB000022318461837BD4680BD00BF00240080AC
:101FC00000E800FE80B483B000AF78607B681B68D7
:101FD0009B6903F00203022B03D17B681B6800227C
:101FE0009A627B681B689B6903F00103012B07D091
:101FF0007B681B689A697B681B6842F001029A61E2
:1020000000BF0C37BD4680BC704780B584B000AFC0
:10201000F860B9603B601346FB713BE0BA69396810
:10202000F86800F061F90346002B01D0012341E07C
:102030003B68B3F1FF3F2DD0FFF704FB0246BB69BD
:10204000D31A3A689A4202D33B68002B22D1FB682C
:102050001B689A69BB681340BA689A420CBF012397
:102060000023DBB21A46FB799A4213D1FB685B6C02
:1020700043F02002FB685A64FB68202283F8412069
:10208000FB68002283F84220FB68002283F840208E
:1020900001230FE0FB681B689A69BB681340BA68AC
:1020A0009A420CBF01230023DBB21A46FB799A4205
:1020B000B4D0002318461037BD4680BD80B584B02B
:1020C00000AFF860B9607A6033E07A68B968F868A0
:1020D00000F00AF90346002B01D0012331E0BB6870
:1020E000B3F1FF3F25D0FFF7ADFA02467B68D31A64
:1020F000BA689A4202D3BB68002B1AD1FB681B68EE
:102100009B6903F00203022B13D0FB685B6C43F066
:102110002002FB685A64FB68202283F84120FB6898
:10212000002283F84220FB68002283F8402001232C
:1021300007E0FB681B689B6903F00203022BC4D114
:10214000002318461037BD4680BD80B584B000AF6F
:10215000F860B9607A602FE07A68B968F86800F0D2
:10216000C3F80346002B01D001232DE0FFF76AFAE4
:1021700002467B68D31ABA689A4202D3BB68002B26
:102180001AD1FB681B689B6903F02003202B13D036
:10219000FB685B6C43F02002FB685A64FB682022FA
:1021A00083F84120FB68002283F84220FB6800226C
:1021B00083F84020012307E0FB681B689B6903F05C
:1021C0002003202BC8D1002318461037BD4680BD00
:1021D00080B586B000AFF860B9607A600023FB7507
:1021E00071E07A68B968F86800F07EF80346002B61
:1021F00001D00123FB75FB681B689B6903F020037A
:10220000202B3BD1FB7D002B38D1FB681B689B69E1
:1022100003F00403042B05D1FB681B8D002B01D0B8
:102220000023FB75FB681B689B6903F01003102BF0
:1022300021D1FB681B681022DA61FB6804225A6412
:10224000FB681B682022DA61FB681B685968FB6821
:102250001A68244B0B405360FB68202283F841200E
:10226000FB68002283F84220FB68002283F84020AC
:102270000123FB7502E0FB6800225A64FFF7E2F9D4
:1022800002467B68D31ABA689A4202D3BB68002B15
:1022900019D1FB7D002B16D1FB681B689B6903F0ED
:1022A0000403042B0FD0FB685B6C43F02002FB6837
:1022B0005A64FB68202283F84120FB68002283F8DF
:1022C00040200123FB75FB681B689B6903F0040336
:1022D000042B02D0FB7D002B83D0FB7D18461837E2
:1022E000BD4680BD00E800FE80B58AB000AFF86052
:1022F000B9607A60002387F82730FB681B689B6908
:10230000BB6100233B627B68FB61BB6903F0100388
:10231000002B68D0FB681B681022DA6149E0BB68BB
:10232000B3F1FF3F45D0FFF78DF90246FB69D31AA1
:10233000BA689A4202D3BB68002B3AD1FB681B688B
:102340005B6803F480437B61FB6893F84230FB7465
:10235000FB681B689B6903F40043B3F5004F21D170
:102360007B69B3F5804F1DD0FB7C202B1AD0FB6816
:102370001B685A68FB681B6842F480425A60FFF78A
:1023800061F9F8610EE0FFF75DF90246FB69D31AC7
:10239000192B07D93B6A43F020033B62012387F8DE
:1023A000273006E0FB681B689B6903F02003202BA5
:1023B000E9D1FB681B689B6903F02003202B03D045
:1023C00097F82730002BAAD097F82730002B03D19D
:1023D000FB681B682022DA613B6A43F004033B621E
:1023E000012387F82730FB681B689B69BB61BB69C9
:1023F00003F48073002B0BD03B6A43F001033B6274
:10240000FB681B684FF48072DA61012387F827307C
:10241000BB6903F48063002B0BD03B6A43F00803D5
:102420003B62FB681B684FF48062DA61012387F826
:102430002730BB6903F40073002B0BD03B6A43F0D9
:1024400002033B62FB681B684FF40072DA610123F0
:1024500087F8273097F82730002B1CD0F868FFF753
:10246000B1FDFB681B685968FB681A680D4B0B408F
:102470005360FB685A6C3B6A1A43FB685A64FB68FA
:10248000202283F84120FB68002283F84220FB6869
:10249000002283F8402097F8273018462837BD4699
:1024A00080BD00BF00E800FE80B487B000AFF860D8
:1024B0007B600B467B8113467B727B89C3F30902E9
:1024C0007B7A1B0403F47F031A437B681A433B6A3D
:1024D000134323F000437B61FB681B685A683B6A27
:1024E0005B0D03F48061074B0B43DB4302EA0301FE
:1024F000FB681B687A690A435A6000BF1C37BD46F7
:1025000080BC7047FF63FF0380B400AF044B1B68BF
:10251000034A43F48073136000BFBD4680BC70471C
:102520000004005880B400AF034B1B6803F4C06381
:102530001846BD4680BC70470004005880B400AF08
:10254000064B1B6803F48073B3F5807F01D1012330
:1025500000E000231846BD4680BC704700040058C8
:1025600080B400AF4FF0B0431B684FF0B04243F46B
:102570000013136000BFBD4680BC704780B400AF3D
:102580004FF0B0431B684FF0B04223F400131360C8
:1025900000BFBD4680BC704780B400AF4FF0B04371
:1025A0001B6803F48013B3F5801F01D1012300E001
:1025B00000231846BD4680BC704780B400AF4FF082
:1025C000B0431B684FF0B04243F48033136000BF48
:1025D000BD4680BC704780B400AF4FF0B0431B686D
:1025E0004FF0B04223F48033136000BFBD4680BC7F
:1025F000704780B400AF4FF0B0431B6803F4003362
:10260000B3F5003F01D1012300E000231846BD4689
:1026100080BC704780B400AF4FF0B0431B684FF0F0
:10262000B04243F48073136000BFBD4680BC704766
:1026300080B400AF4FF0B0431B684FF0B04223F4BA
:102640008073136000BFBD4680BC704780B400AF8C
:102650004FF0B0431B6803F48063B3F5806F01D182
:10266000012300E000231846BD4680BC704780B4BB
:1026700083B000AF78604FF0B0435B6823F0FE4258
:102680007B681B064FF0B04113434B6000BF0C3713
:10269000BD4680BC704780B400AF4FF0B043D3F864
:1026A000903003F00203022B01D1012300E000234C
:1026B0001846BD4680BC704780B400AF4FF0B043B1
:1026C000D3F894304FF0B04243F00103C2F8943095
:1026D00000BFBD4680BC704780B400AF4FF0B04330
:1026E000D3F894304FF0B04223F00103C2F8943095
:1026F00000BFBD4680BC704780B400AF4FF0B04310
:10270000D3F8943003F00203022B01D1012300E03F
:1027100000231846BD4680BC704780B400AF4FF020
:10272000B0431B684FF0B04243F00103136000BF99
:10273000BD4680BC704780B400AF4FF0B0431B680B
:102740004FF0B04223F00103136000BFBD4680BCD0
:10275000704780B400AF4FF0B0431B6803F0020332
:10276000022B01D1012300E000231846BD4680BCA6
:10277000704780B400AF4FF0B0431B6803F008030C
:10278000082B01D1012300E000231846BD4680BC80
:10279000704780B400AF4FF0B0431B6803F0F00304
:1027A0001846BD4680BC704780B400AF4FF0B043C0
:1027B000D3F8943003F470631846BD4680BC70476C
:1027C00080B483B000AF78604FF0B0435B6823F40F
:1027D0007F427B681B024FF0B04113434B6000BF48
:1027E0000C37BD4680BC704780B483B000AF7860C2
:1027F0004FF0B0439B6823F003024FF0B0417B6879
:1028000013438B6000BF0C37BD4680BC704780B45B
:1028100000AF4FF0B0439B6803F00C031846BD4671
:1028200080BC704780B483B000AF78604FF0B04395
:102830009B6823F0F0024FF0B0417B6813438B603C
:1028400000BF0C37BD4680BC704780B483B000AF7A
:1028500078604FF0B043D3F8083123F00F027B6863
:102860001B094FF0B0411343C1F8083100BF0C37CA
:10287000BD4680BC704780B483B000AF78604FF035
:10288000B0439B6823F4E0624FF0B0417B68134390
:102890008B6000BF0C37BD4680BC704780B483B0EE
:1028A00000AF78604FF0B0439B6823F460524FF064
:1028B000B0417B6813438B6000BF0C37BD4680BCC2
:1028C000704780B400AF4FF0B0439B6803F0F00353
:1028D0001846BD4680BC704780B400AF4FF0B0438F
:1028E000D3F808311B0103F0F0031846BD4680BC45
:1028F000704780B400AF4FF0B0431B684FF0B04258
:1029000043F08073136000BFBD4680BC704780B445
:1029100000AF4FF0B0431B684FF0B04223F080731C
:10292000136000BFBD4680BC704780B400AF4FF05D
:10293000B0431B6803F00073B3F1007F01D10123A2
:1029400000E000231846BD4680BC704780B400AF4D
:102950004FF0B043DB681B0A03F07F031846BD4607
:1029600080BC704780B400AF4FF0B043DB6803F029
:1029700060431846BD4680BC704780B400AF4FF03E
:10298000B043DB6803F070031846BD4680BC704757
:1029900080B400AF4FF0B043DB6803F00303184688
:1029A000BD4680BC704780B400AF4FF0B0439B6819
:1029B00003F48033B3F5803F01D1012300E000230D
:1029C0001846BD4680BC704780B400AF4FF0B0439E
:1029D000D3F8083103F48033B3F5803F01D10123EC
:1029E00000E000231846BD4680BC704780B400AFAD
:1029F0004FF0B0439B6803F40033B3F5003F01D1BF
:102A0000012300E000231846BD4680BC704780B417
:102A100000AF4FF0B0439B6803F48023B3F5802FE1
:102A200001D1012300E000231846BD4680BC704759
:102A300080B588B000AF78607B68002B01D101239E
:102A40006FE3FFF7E4FEF861FFF7A2FFB8617B6870
:102A50001B6803F02003002B00F0C480FB69002BEF
:102A600005D0FB690C2B76D1BB69012B73D17B6838
:102A70001B6A002B01D1012353E37B689A6A4FF054
:102A8000B0431B6803F00803002B05D04FF0B043A0
:102A90001B6803F0F00306E04FF0B043D3F8943026
:102AA0001B0903F0F003934222D27B689B6A18460D
:102AB00000F018FD0346002B01D0012331E34FF055
:102AC000B0431B684FF0B04243F0080313604FF06F
:102AD000B0431B6823F0F0027B689B6A4FF0B04163
:102AE00013430B607B685B6A1846FFF769FE21E0C1
:102AF0004FF0B0431B684FF0B04243F0080313603F
:102B00004FF0B0431B6823F0F0027B689B6A4FF0E4
:102B1000B04113430B607B685B6A1846FFF750FEB9
:102B20007B689B6A184600F0DDFC0346002B01D051
:102B30000123F6E200F0C2FC0346A74A1360A74B4C
:102B40001B681846FEF732FD0346FB74FB7C002B26
:102B500047D0FB7CE5E27B681B6A002B2CD0FFF79B
:102B6000DCFDFEF76FFD786108E0FEF76BFD0246C5
:102B70007B69D31A022B01D90323D2E2FFF7E9FDC7
:102B80000346002BF1D04FF0B0431B684FF0B0422A
:102B900043F0080313604FF0B0431B6823F0F002CA
:102BA0007B689B6A4FF0B04113430B607B685B6AA4
:102BB0001846FFF705FE15E0FFF7BDFDFEF742FDE5
:102BC000786108E0FEF73EFD02467B69D31A022BCE
:102BD00001D90323A5E2FFF7BCFD0346002BF1D189
:102BE00000E000BF7B681B6803F00103002B58D096
:102BF000FB69082B05D0FB690C2B08D1BB69032BA3
:102C000005D17B685B68002B4BD1012389E24FF033
:102C1000B0431B6823F480127B689B684FF0B0417F
:102C200013430B607B685B68B3F5803F02D1FFF70D
:102C3000C4FC0DE07B685B68B3F5041F04D1FFF7AB
:102C40008FFCFFF7BAFC03E0FFF7C5FCFFF796FC2B
:102C50007B685B68002B12D0FEF7F4FC786108E01B
:102C6000FEF7F0FC02467B69D31A642B01D90323DB
:102C700057E2FFF7BEFC0346002BF1D011E0FEF750
:102C8000E1FC786108E0FEF7DDFC02467B69D31ABF
:102C9000642B01D9032344E2FFF7ABFC0346002B6E
:102CA000F1D17B681B6803F00203002B46D0FB695F
:102CB000042B05D0FB690C2B0ED1BB69022B0BD169
:102CC0007B681B69002B01D101232AE27B685B69C9
:102CD0001846FFF7CCFC31E07B681B69002B19D04C
:102CE000FFF798FCFEF7AEFC786108E0FEF7AAFC5F
:102CF00002467B69D31A022B01D9032311E2FFF7A5
:102D0000A5FC0346002BF1D07B685B691846FFF7F2
:102D1000AEFC13E0FFF78CFCFEF794FC786108E052
:102D2000FEF790FC02467B69D31A022B01D90323DC
:102D3000F7E1FFF78BFC0346002BF1D17B681B68A2
:102D400003F00803002B6ED07B689B69002B56D0E4
:102D50004FF0B043D3F89430FB607B68DA69FB68CE
:102D600003F010039A4231D0FB6803F00203002BFA
:102D700006D0FB6803F00103002B01D10123D0E151
:102D8000FB6803F00103002B13D0FFF7A5FCFEF74F
:102D900059FC786108E0FEF755FC02467B69D31ABE
:102DA000112B01D90323BCE1FFF7A6FC0346002B3E
:102DB000F1D14FF0B043D3F8943023F010027B6888
:102DC000DB694FF0B0411343C1F89430FFF774FC56
:102DD000FEF738FC78610CE00000002004000020C1
:102DE000FEF730FC02467B69D31A112B01D903236D
:102DF00097E1FFF781FC0346002BF1D013E0FFF7CA
:102E00006BFCFEF71FFC786108E0FEF71BFC024636
:102E10007B69D31A112B01D9032382E1FFF76CFCE4
:102E20000346002BF1D17B681B6803F00403002BE1
:102E300000F0D880FFF782FB0346002B13D1FFF789
:102E400063FBFEF7FFFB786108E0FEF7FBFB024641
:102E50007B69D31A022B01D9032362E1FFF76EFBD2
:102E60000346002BF1D07B68DB68002B7BD07B68AE
:102E7000DB68852B03D07B68DB68052B09D14FF01D
:102E8000B043D3F890304FF0B04243F00403C2F89F
:102E90009030FEF7D7FB78614FF0B043D3F8903015
:102EA0004FF0B04243F00103C2F890300AE0FEF761
:102EB000C9FB02467B69D31A41F28832934201D999
:102EC00003232EE1FFF7E7FB0346002BEFD07B68DF
:102ED000DB68812B03D07B68DB68852B21D1FEF773
:102EE000B1FB78614FF0B043D3F890304FF0B0426F
:102EF00043F08003C2F890300AE0FEF7A3FB0246DD
:102F00007B69D31A41F28832934201D9032308E145
:102F10004FF0B043D3F8903003F40063002BECD0B3
:102F200060E0FEF78FFB78614FF0B043D3F890304C
:102F30004FF0B04223F08003C2F890300AE0FEF771
:102F400081FB02467B69D31A41F28832934201D950
:102F50000323E6E04FF0B043D3F8903003F400636E
:102F6000002BECD13EE0FEF76DFB78614FF0B043F3
:102F7000D3F890304FF0B04223F08003C2F8903085
:102F80000AE0FEF75FFB02467B69D31A41F2883202
:102F9000934201D90323C4E04FF0B043D3F89030FB
:102FA00003F40063002BECD1FEF74CFB78614FF08B
:102FB000B043D3F890304FF0B04223F00103C2F891
:102FC00090300AE0FEF73EFB02467B69D31A41F2DD
:102FD0008832934201D90323A3E0FFF75CFB034649
:102FE000002BEFD17B68DB6A002B00F09980FB6936
:102FF0000C2B6CD07B68DB6A022B4BD1FFF787FC74
:10300000FEF720FB786108E0FEF71CFB02467B69B7
:10301000D31A0A2B01D9032383E0FFF786FC03466A
:10302000002BF1D14FF0B043DA68404B13407A687F
:10303000116B7A68526B11437A68926B12021143DA
:103040007A68D26B11437A68126C11437A68526CB9
:103050000A434FF0B0411343CB60FFF74AFC4FF0F7
:10306000B043DB684FF0B04243F08053D360FEF7CB
:10307000E9FA786108E0FEF7E5FA02467B69D31ABF
:103080000A2B01D903234CE0FFF74FFC0346002B2A
:10309000F1D045E0FFF73BFCFEF7D4FA786108E099
:1030A000FEF7D0FA02467B69D31A0A2B01D9032313
:1030B00037E0FFF73AFC0346002BF1D14FF0B04365
:1030C000DA684FF0B0411A4B1340CB6028E07B68C0
:1030D000DB6A012B01D1012323E04FF0B043DB6811
:1030E000BB61BB6903F003027B681B6B9A4215D17D
:1030F000BB6903F070027B685B6B9A420ED1BB69BF
:1031000003F4FE427B689B6B1B029A4206D1BB69AB
:1031100003F060427B685B6C9A4201D0012300E0BF
:10312000002318462037BD4680BD00BF8C80C111EA
:10313000FCFFFEEE80B584B000AF786039607B683C
:10314000002B01D101230FE1894B1B6803F007031A
:103150003A689A421BD9864B1B6823F007028449C0
:103160003B6813430B60FEF76DFAF86008E0FEF76A
:1031700069FA0246FB68D31A022B01D90323F3E054
:103180007B4B1B6803F007033A689A42EFD17B68D8
:103190001B6803F00203002B16D07B689B6818465F
:1031A000FFF740FBFEF74EFAF86008E0FEF74AFA38
:1031B0000246FB68D31A022B01D90323D4E0FFF7A0
:1031C000F2FB0346002BF1D07B681B6803F0400341
:1031D000002B16D07B685B691846FFF736FBFEF7BD
:1031E00031FAF86008E0FEF72DFA0246FB68D31AC0
:1031F000022B01D90323B7E0FFF7E6FB0346002BC0
:10320000F1D07B681B6803F00403002B16D07B68A9
:10321000DB681846FFF72FFBFEF714FAF86008E0AA
:10322000FEF710FA0246FB68D31A022B01D90323DA
:103230009AE0FFF7DBFB0346002BF1D07B681B68AD
:1032400003F00803002B17D07B681B69DB001846CE
:10325000FFF724FBFEF7F6F9F86008E0FEF7F2F955
:103260000246FB68D31A022B01D903237CE0FFF747
:10327000CEFB0346002BF1D07B681B6803F00103F3
:10328000002B43D07B685B68022B06D1FFF7B1F9B6
:103290000346002B1ED1012366E07B685B68032B8D
:1032A00006D1FFF742FB0346002B13D101235BE05D
:1032B0007B685B68002B06D1FFF74BFA0346002BB7
:1032C00008D1012350E0FFF7C1F90346002B01D1DB
:1032D000012349E07B685B681846FFF785FAFEF733
:1032E000B1F9F8600AE0FEF7ADF90246FB68D31ABF
:1032F00041F28832934201D9032335E0FFF787FA80
:1033000002467B685B689B009A42ECD1184B1B68B5
:1033100003F007033A689A421BD2154B1B6823F04F
:10332000070213493B6813430B60FEF78BF9F86003
:1033300008E0FEF787F90246FB68D31A022B01D991
:10334000032311E00A4B1B6803F007033A689A4213
:10335000EFD100F0B3F80346064A1360064B1B6832
:103360001846FEF723F9034618461037BD4680BDC0
:1033700000400058000000200400002090B587B0F5
:1033800000AF00237B6100233B61FFF740FAB86088
:10339000FFF7FEFA7860BB68002B05D0BB680C2BEA
:1033A00039D17B68012B36D1FFF7E3F90346002BB7
:1033B00015D1FFF7DEF90346012B06D1FFF7E9F936
:1033C00003461B0A03F00F0305E0FFF7EDF9034680
:1033D0001B0A03F00F03364A52F8233014E0FFF7BC
:1033E000C8F90346012B06D1FFF7D3F903461B09A1
:1033F00003F00F0305E0FFF7D7F903461B0903F0BD
:103400000F032B4A52F823303B61BB68002B15D1C8
:103410003B697B6112E0BB68042B02D1254B7B61C9
:103420000CE0BB68082B09D1FFF7B6F80346012B67
:1034300002D1204B7B6101E01F4B7B61FFF7E7F975
:1034400003460C2B2FD1FFF7A3FA78607B68022B81
:1034500003D07B68032B03D00DE0164BFB600DE01F
:10346000FFF79AF80346012B02D1124BFB6005E0EF
:10347000114BFB6002E03B69FB6000BFFFF766FA9F
:103480000246FB6803FB02F4FFF777FA03461B09C9
:103490000133B4FBF3F4FFF765FA03465B0F013326
:1034A000B4FBF3F37B617B6918461C37BD4690BDC6
:1034B000004D00080024F4000048E80198B500AF72
:1034C000FFF75CFF0446FFF7FCF903461B0903F016
:1034D0000F03034A52F82330B4FBF3F3184698BDA8
:1034E000C04C000890B585B000AF78607B681B09C0
:1034F00003F00F03104A52F82330FB60FFF7ECF99A
:1035000003461B0903F00F030C4A52F82330FA68F4
:10351000B2FBF3F3BB60BB68094AA2FB03239C0C1C
:10352000FFF700F803461946204600F00BF8034663
:1035300018461437BD4690BD004D0008C04C000829
:1035400083DE1B4380B58EB000AF786039603A4AA5
:1035500007F1200392E80300186004331980374A0A
:1035600007F1180392E80300186004331980344A05
:1035700007F10C0307CA83E8070000237B633B685D
:10358000B3F5007F1BD100233B6314E03B6B5B0072
:1035900038333B4433F8183C1A467B68934207D8CB
:1035A0003B6B9B0038333B4453F82C3C7B6321E05E
:1035B0003B6B01333B633B6B022BE7D91AE00023E3
:1035C000FB6214E0FB6A5B0038333B4433F8203C79
:1035D0001A467B68934207D8FB6A9B0038333B440A
:1035E00053F82C3C7B6305E0FB6A0133FB62FB6A0A
:1035F000022BE7D9134B1B6823F0070211497B6BA1
:1036000013430B60FEF71EF8B86208E0FEF71AF8E5
:103610000246BB6AD31A022B01D9032307E0094BE8
:103620001B6803F007037A6B9A42EFD10023184618
:103630003837BD4680BD00BFA44C0008AC4C000824
:10364000B44C00080040005880B400AF4FF0B043C5
:10365000D3F8903003F00203022B01D1012300E0E4
:1036600000231846BD4680BC704780B483B000AFCD
:1036700078604FF0B043D3F888207B681B0CDB43A5
:103680001A407B689BB24FF0B0411343C1F88830B9
:1036900000BF0C37BD4680BC704780B483B000AF1C
:1036A00078604FF0B043D3F8883023F440724FF085
:1036B000B0417B681343C1F8883000BF0C37BD466A
:1036C00080BC704780B483B000AF78604FF0B043E7
:1036D000D3F8883023F440624FF0B0417B68134345
:1036E000C1F8883000BF0C37BD4680BC704780B43D
:1036F00083B000AF78604FF0B043D3F888207B6888
:103700001B0903F47F23DB431A407B681B0103F48E
:103710007F234FF0B0411343C1F8883000BF0C370E
:10372000BD4680BC704780B483B000AF78604FF076
:10373000B043D3F888207B681B0C1B04DB431A4082
:103740007B681B044FF0B0411343C1F8883000BFC1
:103750000C37BD4680BC704780B483B000AF786042
:103760004FF0B043D3F8883023F040424FF0B041DF
:103770007B681343C1F8883000BF0C37BD4680BC5E
:10378000704780B483B000AF78604FF0B043D3F897
:10379000883023F040524FF0B0417B681343C1F8AA
:1037A000883000BF0C37BD4680BC704780B483B002
:1037B00000AF78604FF0B043D3F8903023F44072FC
:1037C0004FF0B0417B681343C1F8903000BF0C3715
:1037D000BD4680BC704780B400AF4FF0B043D3F813
:1037E000903003F440731846BD4680BC704780B4E7
:1037F00000AF4FF0B043D3F890304FF0B04243F4F5
:103800008033C2F8903000BFBD4680BC704780B4A2
:1038100000AF4FF0B043D3F890304FF0B04223F4F4
:103820008033C2F8903000BFBD4680BC70470000B6
:1038300080B586B000AF786000237B610023FB7405
:103840000023BB747B681B6803F48033002B58D0C3
:10385000FEF75AFEFDF7F6FEF86009E0FDF7F2FE0E
:103860000246FB68D31A022B02D90323FB7406E03D
:103870007B4B1B6803F48073B3F5807FEED1FB7C38
:10388000002B3CD1FFF7A7FF02467B685B6B9A4297
:103890000FD04FF0B043D3F8903023F440737B61E6
:1038A000FFF7A5FFFFF7B3FF4FF0B0427B69C2F807
:1038B00090307B6903F00203002B14D0FDF7C2FEA9
:1038C000F8600BE0FDF7BEFE0246FB68D31A41F23A
:1038D0008832934202D90323FB7404E0FFF7B4FE5D
:1038E0000346012BEED1FB7C002B05D17B685B6B83
:1038F0001846FFF75BFF04E0FB7CBB7401E0FB7C38
:10390000BB747B681B6803F00103002B04D07B6849
:103910005B681846FFF7A9FE7B681B6803F002038B
:10392000002B04D07B689B681846FFF79EFE7B68DF
:103930001B6803F02003002B04D07B681B6918462A
:10394000FFF7C0FE7B681B6803F40073002B04D0F4
:103950007B681B6A1846FFF7E6FE7B681B6803F46A
:103960008063002B04D07B685B6A1846FFF7DBFEA0
:103970007B681B6803F40063002B04D07B689B6AA0
:103980001846FFF7D0FE7B681B6803F04003002B4E
:1039900004D07B685B691846FFF7A9FE7B681B684B
:1039A00003F08003002B04D07B689B691846FFF767
:1039B0009EFE7B681B6803F48073002B04D07B6839
:1039C000DB691846FFF793FE7B681B6803F0100362
:1039D000002B11D07B68DB681846FFF75EFE7B6822
:1039E000DB68B3F5807F07D14FF0B043DB684FF061
:1039F000B04243F08073D3607B681B6803F40043DC
:103A0000002B10D07B681B6B1846FFF7A5FE7B6868
:103A10001B6B002B07D14FF0B043DB684FF0B04277
:103A200043F08073D3607B681B6803F48043002BF2
:103A300011D07B68DB6A1846FFF7A3FE7B68DB6A60
:103A4000B3F1005F07D14FF0B043DB684FF0B042F5
:103A500043F48033D360BB7C18461837BD4680BD25
:103A60000004005880B483B000AF7860064B9B68B8
:103A700023F4006204497B6813438B6000BF0C375A
:103A8000BD4680BC704700BF0004005880B400AF42
:103A9000054BD3F89030044A43F40043C2F8903009
:103AA00000BFBD4680BC70470004005880B400AF22
:103AB000054BD3F89030044A23F40043C2F8903009
:103AC00000BFBD4680BC70470004005880B400AF02
:103AD000034B4FF400629A6100BFBD4680BC704743
:103AE0000004005880B400AF064B5B6903F002038A
:103AF000022B01D1012300E000231846BD4680BC03
:103B0000704700BF0004005880B400AF064B5B69EB
:103B100003F00403042B01D1012300E00023184625
:103B2000BD4680BC704700BF0004005880B400AFA1
:103B30004FF0B043D3F894304FF0B04223F4004339
:103B4000C2F8943000BFBD4680BC704780B400AF5F
:103B50004FF0B043D3F8943003F48043B3F5804F73
:103B600001D1012300E000231846BD4680BC704708
:103B700080B483B000AF7860064BD3F8902005493D
:103B80007B681343C1F8903000BF0C37BD4680BC42
:103B9000704700BF0008005880B584B000AF78605F
:103BA0007B68002B03D10123FB73FB7B52E00023D6
:103BB000FB737B689B79BB73BB7B002B02D0BB7B09
:103BC000032B09D17B6800225A717868FDF726FC27
:103BD0004FF48050FFF7CCFFBB7B002B26D17B68D6
:103BE00002229A71FFF7A2FF1C4B1A681346DB00F2
:103BF0009B1A9B00DB0C642202FB03F3BB60BB68D7
:103C0000002B05D10123FB737B6801229A6007E03A
:103C1000BB68013BBB60FFF799FF0346002BEED169
:103C2000FFF734FF4FF40060FFF71CFFFFF74EFF74
:103C3000FB7B002B0AD17B681B68184600F070F8EC
:103C40007B6801221A717B6800229A607B680122DE
:103C50009A71FB7B18461037BD4680BD00000020DE
:103C600080B586B000AFF8607A601A460B46FB72EA
:103C700013463B81FB689B79DBB2012B4AD1FB6881
:103C80005B79012B01D1022345E0FB6801225A71C7
:103C9000F86800F0BBF8FB7A842B02D0FB7A942BF7
:103CA00003D1FB6801221A7102E0FB6800221A713D
:103CB000FFF7FCFEFB7A1946F86800F051F8002384
:103CC000BB820AE0BB8A7A6813441B781946F868FD
:103CD00000F046F8BB8A0133BB82BA8A3B899A421C
:103CE000F0D3FFF7D3FEFB7A842B02D0F86800F004
:103CF000B1F8FB689B68002B02D00123FB7501E043
:103D00000023FB75FB6801229A71FB6800225A713F
:103D1000FB7D00E0022318461837BD4680BD000039
:103D200080B483B000AF78600C4B1B680B4A23F063
:103D300040031360094A7B6843F441731360074BE7
:103D40004FF4B8525A60054B1B68044A43F04003D5
:103D5000136000BF0C37BD4680BC7047000001589F
:103D600080B487B000AF78600B46FB700023FB7512
:103D7000234B1A681346DB009B1A9B00DB0C642262
:103D800002FB03F3FB60FB68002B05D10123FB75ED
:103D90007B6801229A6008E0FB68013BFB60194BDD
:103DA0009B6803F00203022BEDD1174B3B613B698B
:103DB000FA781A70124B1A681346DB009B1A9B00A4
:103DC000DB0C642202FB03F3FB60FB68002B05D1D4
:103DD0000123FB757B6801229A6008E0FB68013BC8
:103DE000FB60084B9B6803F00103012BEDD1054BF1
:103DF000DB68FB7D18461C37BD4680BC704700BFA2
:103E000000000020000001580C00015880B584B06B
:103E100000AF78607B681B79012B11D10C4B1A68BD
:103E200013465B001344DB001B0CFB60FFF73EFEF8
:103E3000FB68013BFB60FB68002BF9D1FFF726FE16
:103E4000786800F007F8034618461037BD4680BD75
:103E50000000002080B586B000AF78600023FB75BD
:103E6000124B1A6813465B001344DB001B0D6422DF
:103E700002FB03F3FB60FFF747FE3861FB68002B92
:103E800005D10123FB757B6802229A6009E0FB687B
:103E9000013BFB60FFF726FE02463B691340012B06
:103EA000E9D0FB7D18461837BD4680BD00000020D4
:103EB00080B58AB002AFF860B9603B601346FB8002
:103EC000FB68D3F88830202B73D1BB68002B02D05D
:103ED000FB88002B01D101236CE0FB680022C3F8B2
:103EE0009020FB682122C3F88820FDF7ABFB7861A6
:103EF000FB68FA88A3F85420FB68FA88A3F85620D8
:103F0000FB689B68B3F5805F08D1FB681B69002BD9
:103F100004D10023FB61BB68BB6103E0BB68FB61AC
:103F20000023BB612CE03B6800937B690022802169
:103F3000F86800F043F80346002B01D0032339E072
:103F4000FB69002B0BD1BB691B881A46FB681B68F9
:103F5000C2F308029A62BB690233BB6107E0FB69E6
:103F60001A78FB681B689A62FB690133FB61FB6886
:103F7000B3F856309BB2013B9AB2FB68A3F85620C7
:103F8000FB68B3F856309BB2002BCCD13B68009352
:103F90007B6900224021F86800F010F80346002BEE
:103FA00001D0032306E0FB682022C3F88820002309
:103FB00000E0022318462037BD4680BD80B59CB086
:103FC00000AFF860B9603B601346FB71AFE0BB6FB8
:103FD000B3F1FF3F00F0AB80FDF734FB02463B68D6
:103FE000D31ABA6F9A4202D3BB6F002B40D1FB6841
:103FF0001B683B653B6D53E8003FFB64FB6C23F49F
:10400000D0737B66FB681B681A467B6EFB65BA65DE
:10401000B96DFA6D41E800237B657B6D002BE6D11D
:10402000FB681B680833FB63FB6B53E8003FBB6313
:10403000BB6B23F001033B66FB681B6808333A6ED9
:10404000BA647B64796CBA6C41E800233B643B6CD6
:10405000002BE5D1FB682022C3F88820FB682022D2
:10406000C3F88C20FB68002283F8842003236FE0D0
:10407000FB681B681B6803F00403002B57D0BB6868
:10408000802B54D0BB68402B51D0FB681B68DB6988
:1040900003F40063B3F5006F49D1FB681B684FF46C
:1040A00000621A62FB681B68BB62BB6A53E8003F90
:1040B0007B627B6A23F4D073FB66FB681B681A463D
:1040C000FB6E7B633A63396B7A6B41E80023FB62DA
:1040D000FB6A002BE6D1FB681B6808337B617B69B8
:1040E00053E8003F3B613B6923F00103BB66FB687B
:1040F0001B680833BA6E3A62FB61F9693A6A41E8B3
:104100000023BB61BB69002BE5D1FB682022C3F80B
:104110008820FB682022C3F88C20FB682022C3F88B
:104120009020FB68002283F88420032310E0FB68C2
:104130001B68DA69BB681340BA689A420CBF012356
:104140000023DBB21A46FB799A423FF440AF0023CA
:1041500018467037BD4680BD0EB410B59DB01FAB7C
:10416000029006906FF000410A48079104910A49B5
:1041700053F8042B0591002402A9006801931B94B5
:1041800000F0F0F9029B1C701DB0BDE8104003B0B8
:10419000704700BF0C0000200802FFFF02440346E6
:1041A000934200D1704703F8011BF9E7C9B20346F7
:1041B000184613F8012B12B18A42F9D17047002931
:1041C00018BF0020704710B50139034632B111F80D
:1041D000014F03F8014B013A002CF7D11A4400219A
:1041E000934200D110BD03F8011BF9E7DFB50C4B7A
:1041F00004464FF0FF3618684FF0FF37002269463B
:10420000CDE9006700F00EF8002801DACDE900677B
:10421000DDE900010CB1C4E9000104B0D0BD00BF6C
:104220000C00002038B5074D00230446084611460F
:104230002B6000F07FFC431C02D12B6803B123608C
:1042400038BD00BFC8030020014B1868704700BF8D
:104250000C00002070B50D4D0D4C641BA410002601
:10426000A64209D10B4D0C4C00F06CFC641BA41051
:104270000026A64205D170BD55F8043B984701368B
:10428000EEE755F8043B98470136F2E77C4D00080D
:104290007C4D00087C4D0008804D00087047704739
:1042A0000A44914200F1FF3300D1704710B511F874
:1042B000014B03F8014F9142F9D110BD38B50546C5
:1042C000002941D051F8043C0C1F002BB8BFE41862
:1042D00000F0E0F81D4A136833B9636014602846A3
:1042E000BDE8384000F0DCB8A34208D920682118A6
:1042F0008B4201BF19685B6809182160EDE71A4617
:104300005B680BB1A342FAD911685018A0420BD1D7
:1043100020680144501883421160E0D118685B683E
:10432000536008441060DAE702D90C232B60D6E70B
:10433000206821188B4204BF19685B68636004BF62
:10434000091821605460CAE738BD00BFD4030020BB
:1043500070B50F4E0C463168054611B900F0A4FB4C
:1043600030602146284600F09FFB431C03D14FF0EC
:10437000FF34204670BDC41C24F00304A042F8D0D2
:10438000211A284600F090FB0130F2D1EFE700BF80
:10439000D00300202DE9F843CD1C25F00305083596
:1043A0000C2D38BF0C25002D064601DBA94204D98F
:1043B0000C2333600020BDE8F883DFF8D48000F0E0
:1043C00069F8D8F800301C4644BB29463046FFF750
:1043D000BFFF431C044658D1D8F800402746002FA1
:1043E00043D1002C4BD023683946304604EB0309F7
:1043F00000F05AFB814542D121686D1A29463046AA
:10440000FFF7A6FF01303AD023682B442360D8F889
:1044100000305A6862BBC8F800700FE02268521B77
:1044200020D40B2A17D96119A342256018BF5960FF
:10443000636808BFC8F8001062514B60304600F056
:104440002FF804F10B00231D20F00700C21A1CBF37
:104450001B1AA350AFE76268A3420CBFC8F8002044
:104460005A60EBE723466468AEE73C467F68B6E7F0
:104470001A465B68A342FBD100235360DEE70C239E
:104480003360304600F00CF894E70560D6E700BFD3
:10449000D40300200148FFF701BF00BFCC03002078
:1044A0000148FFF7FCBE00BFCC0300202DE9F04718
:1044B0008E681F46BE420B6882460C4690462DD839
:1044C000B1F90C2012F4906F26D06569096905EBEB
:1044D0004505A3EB010905EBD5757B1C4B446D101D
:1044E0009D4238BF1D46530527D52946FFF752FF89
:1044F000064660B321694A46FFF7D2FEA38923F43A
:10450000906343F08003A381266165614E44A5EB6F
:1045100009052660A5603E46BE4200D93E46206899
:104520003246414600F0A6FAA3689B1BA3602368AD
:10453000334423600020BDE8F0872A4600F0C4FA27
:1045400006460028E0D121695046FFF7B7FE0C234C
:10455000CAF80030A38943F04003A3814FF0FF3035
:10456000E9E700002DE9F04F98468B891B069DB0C6
:1045700007460D46144610D50B6973B94021FFF765
:1045800009FF2860286130B90C233B604FF0FF30F1
:104590001DB0BDE8F08F40236B61002309932023F9
:1045A0008DF82930CDF80C803023DFF89C818DF810
:1045B0002A304FF0010923469A4613F8012B0AB11D
:1045C000252AF9D1BAEB040B0BD05B4622462946CB
:1045D0003846FFF76BFF013000F0A780099A5A4474
:1045E00009929AF80030002B00F09F8000234FF0D2
:1045F000FF32CDE905230AF1010A049307938DF8F0
:1046000053301A935446052214F8011B4E48FBF709
:10461000BFFD049AD8B9D00644BF20238DF853308B
:10462000110744BF2B238DF853309AF800302A2B02
:1046300015D0079A544600204FF00A0C214611F875
:10464000013B303B092B4BD9B0B1079214E0A0EBF2
:10465000080309FA03F313430493A246D2E7039B2A
:10466000191D1B680391002BBBBF5B4242F0020285
:1046700007930793B8BF049223782E2B0AD163784F
:104680002A2B32D1039B1A1D1B68039243EAE37362
:1046900002340593DFF8B4A0217803225046FBF7DB
:1046A00077FD38B1049BA0EB0A00402282401343FF
:1046B0000134049314F8011B25488DF828100622B4
:1046C000FBF766FD002836D0224B1BBB039B07334C
:1046D00023F0070308330393099B334409936AE7E4
:1046E0000CFB02320C460120A8E70023013405939D
:1046F00019464FF00A0C204610F8012B303A092ACF
:1047000003D9002BC6D00591C4E70CFB0121044658
:104710000123F0E703AB00932A460F4B04A9384668
:10472000AFF30080421C0646D6D1AB895B063FF54D
:104730002DAF09982CE703AB00932A46064B04A93A
:10474000384600F079F8EDE7404D0008464D000886
:104750004A4D000800000000AD4400082DE9F04774
:10476000164698468A680B69DDF820909342B8BFD8
:104770001346336091F8432007460C460AB10133D3
:1047800033602368990642BF33680233336025687B
:1047900015F0060506D104F1190AE36832689B1A80
:1047A000AB4226DC94F843302268003B18BF01235B
:1047B00092062BD404F1430241463846C8470130E3
:1047C0001ED02368226903F00603042B02BFE568AC
:1047D0003368ED1AA3680CBF25EAE57500259342FE
:1047E000C4BF9B1AED1800261A34B5421AD1002016
:1047F00008E00123524641463846C847013003D1FC
:104800004FF0FF30BDE8F0870135C6E7E1185A1CCC
:10481000302081F84300224494F8451082F8431078
:104820000233C7E70123224641463846C8470130D4
:10483000E6D00136D9E700002DE9FF470F7E0C9E38
:10484000782F914680460C469A4601F1430207D8DC
:10485000622F0AD8002F00F0D180582F00F0B880C6
:1048600004F1420684F842703AE0A7F16303152B85
:10487000F6D801A151F823F0D1480008E548000816
:104880006148000861480008614800086148000864
:10489000E5480008614800086148000861480008D0
:1048A00061480008E34900080F4900089D490008D5
:1048B0006148000861480008054A0008614800088E
:1048C0000F4900086148000861480008A549000830
:1048D00033681A1D1B68326004F1420684F84230C6
:1048E00001239CE033682068191D3160060601D55C
:1048F0001D6803E04506FBD5B3F90050002D03DA2F
:104900002D236D4284F8433058480A2311E0216872
:104910003368080653F8045B02D4490648BFADB2B9
:104920006F2F5248336014BF0A230823002184F8F4
:1049300043106668A660002E05DB21682E4321F037
:10494000040121604BD01646B5FBF3F103FB115770
:10495000C75D06F8017D2F46BB420D46F4D9082BF2
:104960000BD12368DF0708D5236961689942DEBF50
:10497000302306F8013C06F1FF36921B2261CDF888
:1049800000A04B4603AA21464046FFF7E7FE013050
:104990004AD14FF0FF3004B0BDE8F087236843F000
:1049A000200323603248782784F8457023683168F3
:1049B0001F0651F8045B02D45F0648BFADB23160F8
:1049C000D90744BF43F0200323601DB11023ADE796
:1049D0002648E9E7236823F020032360F6E716461C
:1049E000BDE7336825686169181D30602E061B68B5
:1049F00001D5196002E06806FBD519800023236108
:104A00001646BCE733681A1D32601E6862680021D2
:104A10003046FBF7BDFB08B1801B60606368236113
:104A2000002384F84330AAE72369324649464046CA
:104A3000D0470130ADD023689B0713D4E068039BB7
:104A40009842B8BF1846A6E7012332464946404679
:104A5000D04701309DD00135E36803995B1AAB4222
:104A6000F2DCEBE7002504F11906F5E7514D0008EB
:104A7000624D0008884210B501EB020402D984425D
:104A8000234607D8431EA14208D011F8012B03F892
:104A9000012FF8E7024401468A4200D110BD13F805
:104AA000014D02F8014DF7E738B5064D00230446E5
:104AB00008462B60FCF7F4FC431C02D12B6803B1C1
:104AC000236038BDC80300202DE9F0410746144695
:104AD0000D4621B9BDE8F0411146FFF75BBC2AB98C
:104AE000FFF7ECFB25462846BDE8F08100F01AF8F8
:104AF0008442064602D8B4EB500FF4D8214638461B
:104B0000FFF748FC804608B94546ECE7B442224628
:104B1000294628BF3246FFF7C3FB29463846FFF730
:104B2000CDFBF1E751F8043C181F002BBCBF0B581C
:104B3000C0187047024B58221A604FF0FF30704780
:104B4000C8030020F8B500BFF8BC08BC9E467047FB
:0C4B5000F8B500BFF8BC08BC9E467047DA
:104B5C00253032580D0A0000245041495230303271
:104B6C002A0000000000000000000000000000000F
:104B7C000000000000000000000000000000000029
:104B8C0024504149523030332A000000000000000C
:104B9C000000000000000000000000000000000009
:104BAC000000000000000000245041495230323314
:104BBC002A000000000000000000000000000000BF
:104BCC0000000000000000000000000000000000D9
:104BDC0024504149523036322C25642C25642A004D
:104BEC0024504149523639302C302A002450414946
:104BFC00523639302C25642C25642C25642C2564E4
:104C0C002C25642A000000002450414952363530CE
:104C1C002C302A0000000000000000000000000002
:104C2C000000000000000000000000000000000078
:104C3C0024504149523836302C302C25642C2564B4
:104C4C002C393630302C302A0000000024504149D9
:104C5C00523836312C302C25642A0000245041491E
:104C6C00523837302A00000000000000000000001D
:104C7C000000000000000000000000000000000028
:104C8C000000000025326868780000000008001061
:104C9C0001000000000000001200240030000000A1
:104CAC0006000C00100000000000000001000000D5
:104CBC0002000000010000000300000005000000DD
:104CCC000100000001000000060000000A000000C6
:104CDC00200000000200000004000000080000009A
:104CEC0010000000400000008000000000010000E7
:104CFC0000020000A0860100400D0300801A06008F
:104D0C0000350C0040420F0080841E0000093D005D
:104D1C0000127A000024F40000366E010048E8010D
:104D2C00006CDC020000000000000000000000002D
:104D3C0000000000232D302B2000686C4C006566B1
:104D4C0067454647003031323334353637383941D0
:104D5C0042434445460030313233343536373839E6
:084D6C006162636465660000EA
:084D74000CB4FF7F01000000F8
:044D7C0065010008C5
:044D800041010008E5
:104D840000093D0010000000010000001000002098
:104D94000000000090020020F802002060030020C0
:104DA40000000000000000000000000000000000FF
:104DB40000000000000000000000000000000000EF
:104DC40000000000000000000000000000000000DF
:0C4DD400000000000000000000000000D3
:0400000508001519C1
:00000001FF
